{
  "_format": "hh-sol-artifact-1",
  "contractName": "portfolio",
  "sourceName": "contracts/mywebsite.sol",
  "abi": [
    {
      "inputs": [],
      "stateMutability": "nonpayable",
      "type": "constructor"
    },
    {
      "inputs": [],
      "name": "allEductationDetails",
      "outputs": [
        {
          "components": [
            {
              "internalType": "uint256",
              "name": "id",
              "type": "uint256"
            },
            {
              "internalType": "string",
              "name": "typeOfDiploma",
              "type": "string"
            },
            {
              "internalType": "string",
              "name": "date",
              "type": "string"
            },
            {
              "internalType": "string",
              "name": "institutionName",
              "type": "string"
            },
            {
              "internalType": "string",
              "name": "fieldOfStudy",
              "type": "string"
            }
          ],
          "internalType": "struct portfolio.Education[2]",
          "name": "",
          "type": "tuple[2]"
        }
      ],
      "stateMutability": "view",
      "type": "function"
    },
    {
      "inputs": [],
      "name": "allExperienceDetails",
      "outputs": [
        {
          "components": [
            {
              "internalType": "uint256",
              "name": "experienceCount",
              "type": "uint256"
            },
            {
              "internalType": "string",
              "name": "jobTitle",
              "type": "string"
            },
            {
              "internalType": "string",
              "name": "date",
              "type": "string"
            },
            {
              "internalType": "string",
              "name": "companyName",
              "type": "string"
            },
            {
              "internalType": "string",
              "name": "knowledgeAcquired",
              "type": "string"
            }
          ],
          "internalType": "struct portfolio.Experience[3]",
          "name": "",
          "type": "tuple[3]"
        }
      ],
      "stateMutability": "view",
      "type": "function"
    },
    {
      "inputs": [],
      "name": "allProjects",
      "outputs": [
        {
          "components": [
            {
              "internalType": "uint256",
              "name": "id",
              "type": "uint256"
            },
            {
              "internalType": "string",
              "name": "name",
              "type": "string"
            },
            {
              "internalType": "string",
              "name": "image",
              "type": "string"
            },
            {
              "internalType": "string",
              "name": "description",
              "type": "string"
            },
            {
              "internalType": "string",
              "name": "githubLink",
              "type": "string"
            }
          ],
          "internalType": "struct portfolio.Projects[3]",
          "name": "",
          "type": "tuple[3]"
        }
      ],
      "stateMutability": "view",
      "type": "function"
    },
    {
      "inputs": [
        {
          "internalType": "string",
          "name": "_description",
          "type": "string"
        }
      ],
      "name": "changeDescription",
      "outputs": [],
      "stateMutability": "nonpayable",
      "type": "function"
    },
    {
      "inputs": [
        {
          "internalType": "uint256",
          "name": "_educationCount",
          "type": "uint256"
        },
        {
          "internalType": "string",
          "name": "_date",
          "type": "string"
        },
        {
          "internalType": "string",
          "name": "_degree",
          "type": "string"
        },
        {
          "internalType": "string",
          "name": "_typeOfDiploma",
          "type": "string"
        },
        {
          "internalType": "string",
          "name": "_instutionName",
          "type": "string"
        }
      ],
      "name": "changeEducation",
      "outputs": [],
      "stateMutability": "nonpayable",
      "type": "function"
    },
    {
      "inputs": [
        {
          "internalType": "string",
          "name": "_date",
          "type": "string"
        },
        {
          "internalType": "string",
          "name": "_jobtitle",
          "type": "string"
        },
        {
          "internalType": "string",
          "name": "_knowledgeAcquired",
          "type": "string"
        },
        {
          "internalType": "string",
          "name": "_companyName",
          "type": "string"
        },
        {
          "internalType": "uint256",
          "name": "_experienceDetailCount",
          "type": "uint256"
        }
      ],
      "name": "changeExperience",
      "outputs": [],
      "stateMutability": "nonpayable",
      "type": "function"
    },
    {
      "inputs": [
        {
          "internalType": "string",
          "name": "_imageLink",
          "type": "string"
        }
      ],
      "name": "changeImageLink",
      "outputs": [],
      "stateMutability": "nonpayable",
      "type": "function"
    },
    {
      "inputs": [
        {
          "internalType": "string",
          "name": "_name",
          "type": "string"
        },
        {
          "internalType": "string",
          "name": "_description",
          "type": "string"
        },
        {
          "internalType": "string",
          "name": "_image",
          "type": "string"
        },
        {
          "internalType": "string",
          "name": "_githubLink",
          "type": "string"
        },
        {
          "internalType": "uint256",
          "name": "_projectCount",
          "type": "uint256"
        }
      ],
      "name": "changeProject",
      "outputs": [],
      "stateMutability": "nonpayable",
      "type": "function"
    },
    {
      "inputs": [
        {
          "internalType": "string",
          "name": "_resumeLink",
          "type": "string"
        }
      ],
      "name": "changeResumeLink",
      "outputs": [],
      "stateMutability": "nonpayable",
      "type": "function"
    },
    {
      "inputs": [],
      "name": "description",
      "outputs": [
        {
          "internalType": "string",
          "name": "",
          "type": "string"
        }
      ],
      "stateMutability": "view",
      "type": "function"
    },
    {
      "inputs": [
        {
          "internalType": "uint256",
          "name": "",
          "type": "uint256"
        }
      ],
      "name": "education",
      "outputs": [
        {
          "internalType": "uint256",
          "name": "id",
          "type": "uint256"
        },
        {
          "internalType": "string",
          "name": "typeOfDiploma",
          "type": "string"
        },
        {
          "internalType": "string",
          "name": "date",
          "type": "string"
        },
        {
          "internalType": "string",
          "name": "institutionName",
          "type": "string"
        },
        {
          "internalType": "string",
          "name": "fieldOfStudy",
          "type": "string"
        }
      ],
      "stateMutability": "view",
      "type": "function"
    },
    {
      "inputs": [
        {
          "internalType": "uint256",
          "name": "",
          "type": "uint256"
        }
      ],
      "name": "experienceDetails",
      "outputs": [
        {
          "internalType": "uint256",
          "name": "experienceCount",
          "type": "uint256"
        },
        {
          "internalType": "string",
          "name": "jobTitle",
          "type": "string"
        },
        {
          "internalType": "string",
          "name": "date",
          "type": "string"
        },
        {
          "internalType": "string",
          "name": "companyName",
          "type": "string"
        },
        {
          "internalType": "string",
          "name": "knowledgeAcquired",
          "type": "string"
        }
      ],
      "stateMutability": "view",
      "type": "function"
    },
    {
      "inputs": [],
      "name": "imageLink",
      "outputs": [
        {
          "internalType": "string",
          "name": "",
          "type": "string"
        }
      ],
      "stateMutability": "view",
      "type": "function"
    },
    {
      "inputs": [
        {
          "internalType": "string",
          "name": "_date",
          "type": "string"
        },
        {
          "internalType": "string",
          "name": "_degree",
          "type": "string"
        },
        {
          "internalType": "string",
          "name": "_typeOfDiploma",
          "type": "string"
        },
        {
          "internalType": "string",
          "name": "_instutionName",
          "type": "string"
        }
      ],
      "name": "insertEducation",
      "outputs": [],
      "stateMutability": "nonpayable",
      "type": "function"
    },
    {
      "inputs": [
        {
          "internalType": "string",
          "name": "_date",
          "type": "string"
        },
        {
          "internalType": "string",
          "name": "_jobtitle",
          "type": "string"
        },
        {
          "internalType": "string",
          "name": "_knowledgeAcquired",
          "type": "string"
        },
        {
          "internalType": "string",
          "name": "_companyName",
          "type": "string"
        }
      ],
      "name": "insertExperience",
      "outputs": [],
      "stateMutability": "nonpayable",
      "type": "function"
    },
    {
      "inputs": [
        {
          "internalType": "string",
          "name": "_name",
          "type": "string"
        },
        {
          "internalType": "string",
          "name": "_description",
          "type": "string"
        },
        {
          "internalType": "string",
          "name": "_image",
          "type": "string"
        },
        {
          "internalType": "string",
          "name": "_githubLink",
          "type": "string"
        }
      ],
      "name": "insertProject",
      "outputs": [],
      "stateMutability": "nonpayable",
      "type": "function"
    },
    {
      "inputs": [],
      "name": "manager",
      "outputs": [
        {
          "internalType": "address",
          "name": "",
          "type": "address"
        }
      ],
      "stateMutability": "view",
      "type": "function"
    },
    {
      "inputs": [
        {
          "internalType": "uint256",
          "name": "",
          "type": "uint256"
        }
      ],
      "name": "projects",
      "outputs": [
        {
          "internalType": "uint256",
          "name": "id",
          "type": "uint256"
        },
        {
          "internalType": "string",
          "name": "name",
          "type": "string"
        },
        {
          "internalType": "string",
          "name": "image",
          "type": "string"
        },
        {
          "internalType": "string",
          "name": "description",
          "type": "string"
        },
        {
          "internalType": "string",
          "name": "githubLink",
          "type": "string"
        }
      ],
      "stateMutability": "view",
      "type": "function"
    },
    {
      "inputs": [],
      "name": "resumeLink",
      "outputs": [
        {
          "internalType": "string",
          "name": "",
          "type": "string"
        }
      ],
      "stateMutability": "view",
      "type": "function"
    }
  ],
  "bytecode": "0x60806040526040518060600160405280602e815260200162003ca0602e9139600090816200002e919062000357565b5060405180610160016040528061012b815260200162003b7561012b9139600190816200005c919062000357565b506040518060600160405280602e815260200162003b47602e91396002908162000087919062000357565b503480156200009557600080fd5b5033602e60006101000a81548173ffffffffffffffffffffffffffffffffffffffff021916908373ffffffffffffffffffffffffffffffffffffffff1602179055506200043e565b600081519050919050565b7f4e487b7100000000000000000000000000000000000000000000000000000000600052604160045260246000fd5b7f4e487b7100000000000000000000000000000000000000000000000000000000600052602260045260246000fd5b600060028204905060018216806200015f57607f821691505b60208210810362000175576200017462000117565b5b50919050565b60008190508160005260206000209050919050565b60006020601f8301049050919050565b600082821b905092915050565b600060088302620001df7fffffffffffffffffffffffffffffffffffffffffffffffffffffffffffffffff82620001a0565b620001eb8683620001a0565b95508019841693508086168417925050509392505050565b6000819050919050565b6000819050919050565b600062000238620002326200022c8462000203565b6200020d565b62000203565b9050919050565b6000819050919050565b620002548362000217565b6200026c62000263826200023f565b848454620001ad565b825550505050565b600090565b6200028362000274565b6200029081848462000249565b505050565b5b81811015620002b857620002ac60008262000279565b60018101905062000296565b5050565b601f8211156200030757620002d1816200017b565b620002dc8462000190565b81016020851015620002ec578190505b62000304620002fb8562000190565b83018262000295565b50505b505050565b600082821c905092915050565b60006200032c600019846008026200030c565b1980831691505092915050565b600062000347838362000319565b9150826002028217905092915050565b6200036282620000dd565b67ffffffffffffffff8111156200037e576200037d620000e8565b5b6200038a825462000146565b62000397828285620002bc565b600060209050601f831160018114620003cf5760008415620003ba578287015190505b620003c6858262000339565b86555062000436565b601f198416620003df866200017b565b60005b828110156200040957848901518255600182019150602085019450602081019050620003e2565b8683101562000429578489015162000425601f89168262000319565b8355505b6001600288020188555050505b505050505050565b6136f9806200044e6000396000f3fe608060405234801561001057600080fd5b50600436106101215760003560e01c80636426d4c3116100ad578063bad682c611610071578063bad682c6146102ea578063caf7b7591461031e578063d3cedf111461033c578063d921fa8214610358578063e61204131461037457610121565b80636426d4c31461025a5780636fe8e0bd146102765780637284e416146102925780638af4f98d146102b057806398f831b6146102ce57610121565b806336eea422116100f457806336eea422146101c8578063481c6a75146101e6578063598e7f37146102045780635cea6a7c146102205780635d85a1f41461023e57610121565b8063107046bd1461012657806310ef62c51461015a5780632adf13b21461018e57806336d11594146101ac575b600080fd5b610140600480360381019061013b91906125df565b610390565b6040516101519594939291906126ab565b60405180910390f35b610174600480360381019061016f91906125df565b6105ec565b6040516101859594939291906126ab565b60405180910390f35b610196610848565b6040516101a391906128b4565b60405180910390f35b6101c660048036038101906101c1919061293b565b610aeb565b005b6101d0610d8a565b6040516101dd9190612b78565b60405180910390f35b6101ee61102e565b6040516101fb9190612bdb565b60405180910390f35b61021e60048036038101906102199190612bf6565b611054565b005b6102286110fa565b6040516102359190612c43565b60405180910390f35b61025860048036038101906102539190612c65565b611188565b005b610274600480360381019061026f9190612c65565b611437565b005b610290600480360381019061028b9190612d4e565b611656565b005b61029a611865565b6040516102a79190612c43565b60405180910390f35b6102b86118f3565b6040516102c59190612f8b565b60405180910390f35b6102e860048036038101906102e39190612c65565b611b97565b005b61030460048036038101906102ff91906125df565b611e46565b6040516103159594939291906126ab565b60405180910390f35b6103266120a2565b6040516103339190612c43565b60405180910390f35b61035660048036038101906103519190612bf6565b612130565b005b610372600480360381019061036d9190612d4e565b6121d6565b005b61038e60048036038101906103899190612bf6565b612475565b005b600381600381106103a057600080fd5b600502016000915090508060000154908060010180546103bf90612fdc565b80601f01602080910402602001604051908101604052809291908181526020018280546103eb90612fdc565b80156104385780601f1061040d57610100808354040283529160200191610438565b820191906000526020600020905b81548152906001019060200180831161041b57829003601f168201915b50505050509080600201805461044d90612fdc565b80601f016020809104026020016040519081016040528092919081815260200182805461047990612fdc565b80156104c65780601f1061049b576101008083540402835291602001916104c6565b820191906000526020600020905b8154815290600101906020018083116104a957829003601f168201915b5050505050908060030180546104db90612fdc565b80601f016020809104026020016040519081016040528092919081815260200182805461050790612fdc565b80156105545780601f1061052957610100808354040283529160200191610554565b820191906000526020600020905b81548152906001019060200180831161053757829003601f168201915b50505050509080600401805461056990612fdc565b80601f016020809104026020016040519081016040528092919081815260200182805461059590612fdc565b80156105e25780601f106105b7576101008083540402835291602001916105e2565b820191906000526020600020905b8154815290600101906020018083116105c557829003601f168201915b5050505050905085565b601c81600381106105fc57600080fd5b6005020160009150905080600001549080600101805461061b90612fdc565b80601f016020809104026020016040519081016040528092919081815260200182805461064790612fdc565b80156106945780601f1061066957610100808354040283529160200191610694565b820191906000526020600020905b81548152906001019060200180831161067757829003601f168201915b5050505050908060020180546106a990612fdc565b80601f01602080910402602001604051908101604052809291908181526020018280546106d590612fdc565b80156107225780601f106106f757610100808354040283529160200191610722565b820191906000526020600020905b81548152906001019060200180831161070557829003601f168201915b50505050509080600301805461073790612fdc565b80601f016020809104026020016040519081016040528092919081815260200182805461076390612fdc565b80156107b05780601f10610785576101008083540402835291602001916107b0565b820191906000526020600020905b81548152906001019060200180831161079357829003601f168201915b5050505050908060040180546107c590612fdc565b80601f01602080910402602001604051908101604052809291908181526020018280546107f190612fdc565b801561083e5780601f106108135761010080835404028352916020019161083e565b820191906000526020600020905b81548152906001019060200180831161082157829003601f168201915b5050505050905085565b61085061248b565b60038080602002604051908101604052809291906000905b82821015610ae2578382600502016040518060a00160405290816000820154815260200160018201805461089b90612fdc565b80601f01602080910402602001604051908101604052809291908181526020018280546108c790612fdc565b80156109145780601f106108e957610100808354040283529160200191610914565b820191906000526020600020905b8154815290600101906020018083116108f757829003601f168201915b5050505050815260200160028201805461092d90612fdc565b80601f016020809104026020016040519081016040528092919081815260200182805461095990612fdc565b80156109a65780601f1061097b576101008083540402835291602001916109a6565b820191906000526020600020905b81548152906001019060200180831161098957829003601f168201915b505050505081526020016003820180546109bf90612fdc565b80601f01602080910402602001604051908101604052809291908181526020018280546109eb90612fdc565b8015610a385780601f10610a0d57610100808354040283529160200191610a38565b820191906000526020600020905b815481529060010190602001808311610a1b57829003601f168201915b50505050508152602001600482018054610a5190612fdc565b80601f0160208091040260200160405190810160405280929190818152602001828054610a7d90612fdc565b8015610aca5780601f10610a9f57610100808354040283529160200191610aca565b820191906000526020600020905b815481529060010190602001808311610aad57829003601f168201915b50505050508152505081526020019060010190610868565b50505050905090565b3373ffffffffffffffffffffffffffffffffffffffff16602e60009054906101000a900473ffffffffffffffffffffffffffffffffffffffff1673ffffffffffffffffffffffffffffffffffffffff1614610b7b576040517f08c379a0000000000000000000000000000000000000000000000000000000008152600401610b7290613059565b60405180910390fd5b60008910158015610b8c5750600389105b610bcb576040517f08c379a0000000000000000000000000000000000000000000000000000000008152600401610bc2906130c5565b60405180910390fd5b6040518060a001604052808a815260200185858080601f016020809104026020016040519081016040528093929190818152602001838380828437600081840152601f19601f82011690508083019250505050505050815260200189898080601f016020809104026020016040519081016040528093929190818152602001838380828437600081840152601f19601f82011690508083019250505050505050815260200183838080601f016020809104026020016040519081016040528093929190818152602001838380828437600081840152601f19601f82011690508083019250505050505050815260200187878080601f016020809104026020016040519081016040528093929190818152602001838380828437600081840152601f19601f8201169050808301925050505050505081525060128a60028110610d1657610d156130e5565b5b60050201600082015181600001556020820151816001019081610d3991906132ef565b506040820151816002019081610d4f91906132ef565b506060820151816003019081610d6591906132ef565b506080820151816004019081610d7b91906132ef565b50905050505050505050505050565b610d926124b8565b601c600380602002604051908101604052809291906000905b82821015611025578382600502016040518060a001604052908160008201548152602001600182018054610dde90612fdc565b80601f0160208091040260200160405190810160405280929190818152602001828054610e0a90612fdc565b8015610e575780601f10610e2c57610100808354040283529160200191610e57565b820191906000526020600020905b815481529060010190602001808311610e3a57829003601f168201915b50505050508152602001600282018054610e7090612fdc565b80601f0160208091040260200160405190810160405280929190818152602001828054610e9c90612fdc565b8015610ee95780601f10610ebe57610100808354040283529160200191610ee9565b820191906000526020600020905b815481529060010190602001808311610ecc57829003601f168201915b50505050508152602001600382018054610f0290612fdc565b80601f0160208091040260200160405190810160405280929190818152602001828054610f2e90612fdc565b8015610f7b5780601f10610f5057610100808354040283529160200191610f7b565b820191906000526020600020905b815481529060010190602001808311610f5e57829003601f168201915b50505050508152602001600482018054610f9490612fdc565b80601f0160208091040260200160405190810160405280929190818152602001828054610fc090612fdc565b801561100d5780601f10610fe25761010080835404028352916020019161100d565b820191906000526020600020905b815481529060010190602001808311610ff057829003601f168201915b50505050508152505081526020019060010190610dab565b50505050905090565b602e60009054906101000a900473ffffffffffffffffffffffffffffffffffffffff1681565b3373ffffffffffffffffffffffffffffffffffffffff16602e60009054906101000a900473ffffffffffffffffffffffffffffffffffffffff1673ffffffffffffffffffffffffffffffffffffffff16146110e4576040517f08c379a00000000000000000000000000000000000000000000000000000000081526004016110db90613059565b60405180910390fd5b8181600091826110f59291906133cc565b505050565b6002805461110790612fdc565b80601f016020809104026020016040519081016040528092919081815260200182805461113390612fdc565b80156111805780601f1061115557610100808354040283529160200191611180565b820191906000526020600020905b81548152906001019060200180831161116357829003601f168201915b505050505081565b3373ffffffffffffffffffffffffffffffffffffffff16602e60009054906101000a900473ffffffffffffffffffffffffffffffffffffffff1673ffffffffffffffffffffffffffffffffffffffff1614611218576040517f08c379a000000000000000000000000000000000000000000000000000000000815260040161120f90613059565b60405180910390fd5b6003602d541061125d576040517f08c379a0000000000000000000000000000000000000000000000000000000008152600401611254906134e8565b60405180910390fd5b6040518060a00160405280602d54815260200187878080601f016020809104026020016040519081016040528093929190818152602001838380828437600081840152601f19601f82011690508083019250505050505050815260200189898080601f016020809104026020016040519081016040528093929190818152602001838380828437600081840152601f19601f82011690508083019250505050505050815260200183838080601f016020809104026020016040519081016040528093929190818152602001838380828437600081840152601f19601f82011690508083019250505050505050815260200185858080601f016020809104026020016040519081016040528093929190818152602001838380828437600081840152601f19601f82011690508083019250505050505050815250601c602d54600381106113ac576113ab6130e5565b5b600502016000820151816000015560208201518160010190816113cf91906132ef565b5060408201518160020190816113e591906132ef565b5060608201518160030190816113fb91906132ef565b50608082015181600401908161141191906132ef565b50905050602d600081548092919061142890613537565b91905055505050505050505050565b6003602b541061147c576040517f08c379a0000000000000000000000000000000000000000000000000000000008152600401611473906135cb565b60405180910390fd5b6040518060a00160405280602b54815260200189898080601f016020809104026020016040519081016040528093929190818152602001838380828437600081840152601f19601f82011690508083019250505050505050815260200185858080601f016020809104026020016040519081016040528093929190818152602001838380828437600081840152601f19601f82011690508083019250505050505050815260200187878080601f016020809104026020016040519081016040528093929190818152602001838380828437600081840152601f19601f82011690508083019250505050505050815260200183838080601f016020809104026020016040519081016040528093929190818152602001838380828437600081840152601f19601f820116905080830192505050505050508152506003602b54600381106115cb576115ca6130e5565b5b600502016000820151816000015560208201518160010190816115ee91906132ef565b50604082015181600201908161160491906132ef565b50606082015181600301908161161a91906132ef565b50608082015181600401908161163091906132ef565b50905050602b600081548092919061164790613537565b91905055505050505050505050565b600081101580156116675750600381105b6116a6576040517f08c379a000000000000000000000000000000000000000000000000000000000815260040161169d906135cb565b60405180910390fd5b6040518060a001604052808281526020018a8a8080601f016020809104026020016040519081016040528093929190818152602001838380828437600081840152601f19601f82011690508083019250505050505050815260200188888080601f016020809104026020016040519081016040528093929190818152602001838380828437600081840152601f19601f82011690508083019250505050505050815260200186868080601f016020809104026020016040519081016040528093929190818152602001838380828437600081840152601f19601f82011690508083019250505050505050815260200184848080601f016020809104026020016040519081016040528093929190818152602001838380828437600081840152601f19601f82011690508083019250505050505050815250600382600381106117f1576117f06130e5565b5b6005020160008201518160000155602082015181600101908161181491906132ef565b50604082015181600201908161182a91906132ef565b50606082015181600301908161184091906132ef565b50608082015181600401908161185691906132ef565b50905050505050505050505050565b6001805461187290612fdc565b80601f016020809104026020016040519081016040528092919081815260200182805461189e90612fdc565b80156118eb5780601f106118c0576101008083540402835291602001916118eb565b820191906000526020600020905b8154815290600101906020018083116118ce57829003601f168201915b505050505081565b6118fb6124e5565b6012600280602002604051908101604052809291906000905b82821015611b8e578382600502016040518060a00160405290816000820154815260200160018201805461194790612fdc565b80601f016020809104026020016040519081016040528092919081815260200182805461197390612fdc565b80156119c05780601f10611995576101008083540402835291602001916119c0565b820191906000526020600020905b8154815290600101906020018083116119a357829003601f168201915b505050505081526020016002820180546119d990612fdc565b80601f0160208091040260200160405190810160405280929190818152602001828054611a0590612fdc565b8015611a525780601f10611a2757610100808354040283529160200191611a52565b820191906000526020600020905b815481529060010190602001808311611a3557829003601f168201915b50505050508152602001600382018054611a6b90612fdc565b80601f0160208091040260200160405190810160405280929190818152602001828054611a9790612fdc565b8015611ae45780601f10611ab957610100808354040283529160200191611ae4565b820191906000526020600020905b815481529060010190602001808311611ac757829003601f168201915b50505050508152602001600482018054611afd90612fdc565b80601f0160208091040260200160405190810160405280929190818152602001828054611b2990612fdc565b8015611b765780601f10611b4b57610100808354040283529160200191611b76565b820191906000526020600020905b815481529060010190602001808311611b5957829003601f168201915b50505050508152505081526020019060010190611914565b50505050905090565b3373ffffffffffffffffffffffffffffffffffffffff16602e60009054906101000a900473ffffffffffffffffffffffffffffffffffffffff1673ffffffffffffffffffffffffffffffffffffffff1614611c27576040517f08c379a0000000000000000000000000000000000000000000000000000000008152600401611c1e90613059565b60405180910390fd5b6002602c5410611c6c576040517f08c379a0000000000000000000000000000000000000000000000000000000008152600401611c6390613637565b60405180910390fd5b6040518060a00160405280602c54815260200185858080601f016020809104026020016040519081016040528093929190818152602001838380828437600081840152601f19601f82011690508083019250505050505050815260200189898080601f016020809104026020016040519081016040528093929190818152602001838380828437600081840152601f19601f82011690508083019250505050505050815260200183838080601f016020809104026020016040519081016040528093929190818152602001838380828437600081840152601f19601f82011690508083019250505050505050815260200187878080601f016020809104026020016040519081016040528093929190818152602001838380828437600081840152601f19601f820116905080830192505050505050508152506012602c5460028110611dbb57611dba6130e5565b5b60050201600082015181600001556020820151816001019081611dde91906132ef565b506040820151816002019081611df491906132ef565b506060820151816003019081611e0a91906132ef565b506080820151816004019081611e2091906132ef565b50905050602c6000815480929190611e3790613537565b91905055505050505050505050565b60128160028110611e5657600080fd5b60050201600091509050806000015490806001018054611e7590612fdc565b80601f0160208091040260200160405190810160405280929190818152602001828054611ea190612fdc565b8015611eee5780601f10611ec357610100808354040283529160200191611eee565b820191906000526020600020905b815481529060010190602001808311611ed157829003601f168201915b505050505090806002018054611f0390612fdc565b80601f0160208091040260200160405190810160405280929190818152602001828054611f2f90612fdc565b8015611f7c5780601f10611f5157610100808354040283529160200191611f7c565b820191906000526020600020905b815481529060010190602001808311611f5f57829003601f168201915b505050505090806003018054611f9190612fdc565b80601f0160208091040260200160405190810160405280929190818152602001828054611fbd90612fdc565b801561200a5780601f10611fdf5761010080835404028352916020019161200a565b820191906000526020600020905b815481529060010190602001808311611fed57829003601f168201915b50505050509080600401805461201f90612fdc565b80601f016020809104026020016040519081016040528092919081815260200182805461204b90612fdc565b80156120985780601f1061206d57610100808354040283529160200191612098565b820191906000526020600020905b81548152906001019060200180831161207b57829003601f168201915b5050505050905085565b600080546120af90612fdc565b80601f01602080910402602001604051908101604052809291908181526020018280546120db90612fdc565b80156121285780601f106120fd57610100808354040283529160200191612128565b820191906000526020600020905b81548152906001019060200180831161210b57829003601f168201915b505050505081565b3373ffffffffffffffffffffffffffffffffffffffff16602e60009054906101000a900473ffffffffffffffffffffffffffffffffffffffff1673ffffffffffffffffffffffffffffffffffffffff16146121c0576040517f08c379a00000000000000000000000000000000000000000000000000000000081526004016121b790613059565b60405180910390fd5b8181600291826121d19291906133cc565b505050565b3373ffffffffffffffffffffffffffffffffffffffff16602e60009054906101000a900473ffffffffffffffffffffffffffffffffffffffff1673ffffffffffffffffffffffffffffffffffffffff1614612266576040517f08c379a000000000000000000000000000000000000000000000000000000000815260040161225d90613059565b60405180910390fd5b600081101580156122775750600381105b6122b6576040517f08c379a00000000000000000000000000000000000000000000000000000000081526004016122ad906136a3565b60405180910390fd5b6040518060a0016040528082815260200188888080601f016020809104026020016040519081016040528093929190818152602001838380828437600081840152601f19601f8201169050808301925050505050505081526020018a8a8080601f016020809104026020016040519081016040528093929190818152602001838380828437600081840152601f19601f82011690508083019250505050505050815260200184848080601f016020809104026020016040519081016040528093929190818152602001838380828437600081840152601f19601f82011690508083019250505050505050815260200186868080601f016020809104026020016040519081016040528093929190818152602001838380828437600081840152601f19601f82011690508083019250505050505050815250601c8260038110612401576124006130e5565b5b6005020160008201518160000155602082015181600101908161242491906132ef565b50604082015181600201908161243a91906132ef565b50606082015181600301908161245091906132ef565b50608082015181600401908161246691906132ef565b50905050505050505050505050565b8181600191826124869291906133cc565b505050565b60405180606001604052806003905b6124a2612512565b81526020019060019003908161249a5790505090565b60405180606001604052806003905b6124cf612541565b8152602001906001900390816124c75790505090565b60405180604001604052806002905b6124fc612570565b8152602001906001900390816124f45790505090565b6040518060a0016040528060008152602001606081526020016060815260200160608152602001606081525090565b6040518060a0016040528060008152602001606081526020016060815260200160608152602001606081525090565b6040518060a0016040528060008152602001606081526020016060815260200160608152602001606081525090565b600080fd5b600080fd5b6000819050919050565b6125bc816125a9565b81146125c757600080fd5b50565b6000813590506125d9816125b3565b92915050565b6000602082840312156125f5576125f461259f565b5b6000612603848285016125ca565b91505092915050565b612615816125a9565b82525050565b600081519050919050565b600082825260208201905092915050565b60005b8381101561265557808201518184015260208101905061263a565b60008484015250505050565b6000601f19601f8301169050919050565b600061267d8261261b565b6126878185612626565b9350612697818560208601612637565b6126a081612661565b840191505092915050565b600060a0820190506126c0600083018861260c565b81810360208301526126d28187612672565b905081810360408301526126e68186612672565b905081810360608301526126fa8185612672565b9050818103608083015261270e8184612672565b90509695505050505050565b600060039050919050565b600081905092915050565b6000819050919050565b612743816125a9565b82525050565b600082825260208201905092915050565b60006127658261261b565b61276f8185612749565b935061277f818560208601612637565b61278881612661565b840191505092915050565b600060a0830160008301516127ab600086018261273a565b50602083015184820360208601526127c3828261275a565b915050604083015184820360408601526127dd828261275a565b915050606083015184820360608601526127f7828261275a565b91505060808301518482036080860152612811828261275a565b9150508091505092915050565b600061282a8383612793565b905092915050565b6000602082019050919050565b600061284a8261271a565b6128548185612725565b93508360208202850161286685612730565b8060005b858110156128a25784840389528151612883858261281e565b945061288e83612832565b925060208a0199505060018101905061286a565b50829750879550505050505092915050565b600060208201905081810360008301526128ce818461283f565b905092915050565b600080fd5b600080fd5b600080fd5b60008083601f8401126128fb576128fa6128d6565b5b8235905067ffffffffffffffff811115612918576129176128db565b5b602083019150836001820283011115612934576129336128e0565b5b9250929050565b600080600080600080600080600060a08a8c03121561295d5761295c61259f565b5b600061296b8c828d016125ca565b99505060208a013567ffffffffffffffff81111561298c5761298b6125a4565b5b6129988c828d016128e5565b985098505060408a013567ffffffffffffffff8111156129bb576129ba6125a4565b5b6129c78c828d016128e5565b965096505060608a013567ffffffffffffffff8111156129ea576129e96125a4565b5b6129f68c828d016128e5565b945094505060808a013567ffffffffffffffff811115612a1957612a186125a4565b5b612a258c828d016128e5565b92509250509295985092959850929598565b600060039050919050565b600081905092915050565b6000819050919050565b600060a083016000830151612a6f600086018261273a565b5060208301518482036020860152612a87828261275a565b91505060408301518482036040860152612aa1828261275a565b91505060608301518482036060860152612abb828261275a565b91505060808301518482036080860152612ad5828261275a565b9150508091505092915050565b6000612aee8383612a57565b905092915050565b6000602082019050919050565b6000612b0e82612a37565b612b188185612a42565b935083602082028501612b2a85612a4d565b8060005b85811015612b665784840389528151612b478582612ae2565b9450612b5283612af6565b925060208a01995050600181019050612b2e565b50829750879550505050505092915050565b60006020820190508181036000830152612b928184612b03565b905092915050565b600073ffffffffffffffffffffffffffffffffffffffff82169050919050565b6000612bc582612b9a565b9050919050565b612bd581612bba565b82525050565b6000602082019050612bf06000830184612bcc565b92915050565b60008060208385031215612c0d57612c0c61259f565b5b600083013567ffffffffffffffff811115612c2b57612c2a6125a4565b5b612c37858286016128e5565b92509250509250929050565b60006020820190508181036000830152612c5d8184612672565b905092915050565b6000806000806000806000806080898b031215612c8557612c8461259f565b5b600089013567ffffffffffffffff811115612ca357612ca26125a4565b5b612caf8b828c016128e5565b9850985050602089013567ffffffffffffffff811115612cd257612cd16125a4565b5b612cde8b828c016128e5565b9650965050604089013567ffffffffffffffff811115612d0157612d006125a4565b5b612d0d8b828c016128e5565b9450945050606089013567ffffffffffffffff811115612d3057612d2f6125a4565b5b612d3c8b828c016128e5565b92509250509295985092959890939650565b600080600080600080600080600060a08a8c031215612d7057612d6f61259f565b5b60008a013567ffffffffffffffff811115612d8e57612d8d6125a4565b5b612d9a8c828d016128e5565b995099505060208a013567ffffffffffffffff811115612dbd57612dbc6125a4565b5b612dc98c828d016128e5565b975097505060408a013567ffffffffffffffff811115612dec57612deb6125a4565b5b612df88c828d016128e5565b955095505060608a013567ffffffffffffffff811115612e1b57612e1a6125a4565b5b612e278c828d016128e5565b93509350506080612e3a8c828d016125ca565b9150509295985092959850929598565b600060029050919050565b600081905092915050565b6000819050919050565b600060a083016000830151612e82600086018261273a565b5060208301518482036020860152612e9a828261275a565b91505060408301518482036040860152612eb4828261275a565b91505060608301518482036060860152612ece828261275a565b91505060808301518482036080860152612ee8828261275a565b9150508091505092915050565b6000612f018383612e6a565b905092915050565b6000602082019050919050565b6000612f2182612e4a565b612f2b8185612e55565b935083602082028501612f3d85612e60565b8060005b85811015612f795784840389528151612f5a8582612ef5565b9450612f6583612f09565b925060208a01995050600181019050612f41565b50829750879550505050505092915050565b60006020820190508181036000830152612fa58184612f16565b905092915050565b7f4e487b7100000000000000000000000000000000000000000000000000000000600052602260045260246000fd5b60006002820490506001821680612ff457607f821691505b60208210810361300757613006612fad565b5b50919050565b7f596f7520617265206e6f7420746865206d616e61676572000000000000000000600082015250565b6000613043601783612626565b915061304e8261300d565b602082019050919050565b6000602082019050818103600083015261307281613036565b9050919050565b7f496e76616c696420656475636174696f6e436f756e7400000000000000000000600082015250565b60006130af601683612626565b91506130ba82613079565b602082019050919050565b600060208201905081810360008301526130de816130a2565b9050919050565b7f4e487b7100000000000000000000000000000000000000000000000000000000600052603260045260246000fd5b7f4e487b7100000000000000000000000000000000000000000000000000000000600052604160045260246000fd5b60008190508160005260206000209050919050565b60006020601f8301049050919050565b600082821b905092915050565b6000600883026131a57fffffffffffffffffffffffffffffffffffffffffffffffffffffffffffffffff82613168565b6131af8683613168565b95508019841693508086168417925050509392505050565b6000819050919050565b60006131ec6131e76131e2846125a9565b6131c7565b6125a9565b9050919050565b6000819050919050565b613206836131d1565b61321a613212826131f3565b848454613175565b825550505050565b600090565b61322f613222565b61323a8184846131fd565b505050565b5b8181101561325e57613253600082613227565b600181019050613240565b5050565b601f8211156132a35761327481613143565b61327d84613158565b8101602085101561328c578190505b6132a061329885613158565b83018261323f565b50505b505050565b600082821c905092915050565b60006132c6600019846008026132a8565b1980831691505092915050565b60006132df83836132b5565b9150826002028217905092915050565b6132f88261261b565b67ffffffffffffffff81111561331157613310613114565b5b61331b8254612fdc565b613326828285613262565b600060209050601f8311600181146133595760008415613347578287015190505b61335185826132d3565b8655506133b9565b601f19841661336786613143565b60005b8281101561338f5784890151825560018201915060208501945060208101905061336a565b868310156133ac57848901516133a8601f8916826132b5565b8355505b6001600288020188555050505b505050505050565b600082905092915050565b6133d683836133c1565b67ffffffffffffffff8111156133ef576133ee613114565b5b6133f98254612fdc565b613404828285613262565b6000601f8311600181146134335760008415613421578287013590505b61342b85826132d3565b865550613493565b601f19841661344186613143565b60005b8281101561346957848901358255600182019150602085019450602081019050613444565b868310156134865784890135613482601f8916826132b5565b8355505b6001600288020188555050505b50505050505050565b7f4f6e6c79203320656475636174696f6e2064657461696c7320616c6c6f776564600082015250565b60006134d2602083612626565b91506134dd8261349c565b602082019050919050565b60006020820190508181036000830152613501816134c5565b9050919050565b7f4e487b7100000000000000000000000000000000000000000000000000000000600052601160045260246000fd5b6000613542826125a9565b91507fffffffffffffffffffffffffffffffffffffffffffffffffffffffffffffffff820361357457613573613508565b5b600182019050919050565b7f4f6e6c7920332070726f6a6563747320616c6c6f776564000000000000000000600082015250565b60006135b5601783612626565b91506135c08261357f565b602082019050919050565b600060208201905081810360008301526135e4816135a8565b9050919050565b7f4f6e6c79203220656475636174696f6e2064657461696c7320616c6c6f776564600082015250565b6000613621602083612626565b915061362c826135eb565b602082019050919050565b6000602082019050818103600083015261365081613614565b9050919050565b7f496e76616c696420657870657269656e6365436f756e74000000000000000000600082015250565b600061368d601783612626565b915061369882613657565b602082019050919050565b600060208201905081810360008301526136bc81613680565b905091905056fea2646970667358221220911d742ef61fa94cf76da76c52d250cc1bd93b8d8f7a66f7e8cf8e136356b65864736f6c63430008180033516d634c446971476b574456704a743568777234457a5467667643717456733265455641587833365a6b696a3257466f72206d6f7265207468616e206120796561722c20492776652064656c76656420696e746f2074686520776f726c64206f6620626c6f636b636861696e2c206163746976656c79206170706c79696e67206d79206b6e6f776c6564676520696e2070726f6a6563747320616e6420696e7465726e73686970732e204d7920736b696c6c732072616e67652066726f6d2066726f6e742d656e6420646576656c6f706d656e7420746f2074686520636f6d706c65786974696573206f66206372656174696e6720616e64206465706c6f79696e6720736d61727420636f6e7472616374732c207265666c656374696e67206120636f6d70726568656e7369766520756e6465727374616e64696e67206f662074686520626c6f636b636861696e2065636f73797374656d2e516d66343964654146545458624c3232564d674571343953415a45703370715463316d3354756f524350366a506f",
  "linkReferences": {},
  "deployedLinkReferences": {}
}